:100000000C945E000C9486000C9486000C94860080
:100010000C9486000C9486000C9486000C94860048
:100020000C9486000C9486000C9486000C94750544
:100030000C9486000C9486000C9486000C94860028
:100040000C9469070C9486000C94180A0C944A0AC4
:100050000C9486000C9486000C9486000C94860008
:100060000C9486000C948600000000080002010039
:100070000003040700000000000000000102040863
:100080001020408001020408102001020408102002
:10009000040404040404040402020202020203032E
:1000A0000303030300000000250028002B000000CC
:1000B0000000240027002A00BA017A0A11241FBE7A
:1000C000CFEFD8E0DEBFCDBF11E0A0E0B1E0EAE7BE
:1000D000F8E102C005900D92AA37B107D9F726E0E2
:1000E000AAE7B1E001C01D92A53AB207E1F710E01E
:1000F000CCEBD0E004C02297FE010E94120CC83B5A
:10010000D107C9F70E94BE0A0C943B0C0C94000066
:10011000DC01ED91FC910190F081E02D09946BE4FC
:1001200071E088E096E00C94260BEAE7F1E020917C
:10013000BA0130E0AF014A575140421753072CF43F
:100140002191DC012D93CD01F2CF08951092BA01D7
:100150000895CF93C82F63EF70E088E096E00E9487
:1001600088006C2F88E096E00E94510960E070E002
:1001700088E096E00E94880060E070E088E096E009
:100180000E94880060E070E088E096E00E948800AD
:1001900060E070E088E096E0CF910C948800CF9307
:1001A000DF9388E096E00E94D108C091BA01892BC4
:1001B00071F0D0E088E096E00E94EC08C658DE4F6F
:1001C00088838091BA018F5F8093BA01EACF8C2F28
:1001D000DF91CF910895CF93DF93EC010E94CF0080
:1001E0008091BA018D3039F4CE010E9495001092B1
:1001F000BA0181E001C080E0DF91CF91089561E014
:1002000083E00E94620861E085E00E94620861E08C
:1002100086E00E94620861E089E00E94620861E075
:100220008AE00E94620861E08BE00E94620863E05D
:1002300070E08CEB91E00E94CB0665E070E08FEB04
:1002400091E00E94CB0666E070E082EC91E00E94B3
:10025000CB0669E070E085EC91E00E94CB066AE095
:1002600070E088EC91E00E94CB066BE070E08BECD4
:1002700091E00E94CB06E1EDF1E08AE591E0DF013B
:1002800013978C9311968C9311969C9310823496AD
:1002900021E0E93EF20799F70895873050F494E0A1
:1002A000899FF0011124E253FE4F6183428380E075
:1002B000089581E00895BF92CF92DF92EF92FF926E
:1002C0000F931F93CF93DF931092BB01CEECD1E03D
:1002D0008FECE82E81E0F82E0CEB11E090EDC92EAA
:1002E00091E0D92EBB24B3946881F7014081641753
:1002F00078F4B092BB01F6015081852F90E0860F13
:10030000911D242F30E082179307A4F4650F10C0CD
:100310004617B8F4B092BB01F6015081862F90E0E9
:10032000851B9109242F30E0281739071CF4651B21
:10033000688303C04883F701608170E0C8010E94B0
:1003400004072496F4E0EF0EF11C0D5F1F4F84E0CC
:10035000C80ED11CE1E0C63EDE0731F68091BB013C
:10036000DF91CF911F910F91FF90EF90DF90CF9091
:10037000BF900895CF93DF93CCEBD1E0CE010E94E4
:100380003106239681E0CE3CD807C1F7DF91CF91AB
:100390000895CF92DF92EF92FF920F931F93CF9326
:1003A000DF937C01EB0100E010E0C42ED12C0C1592
:1003B0001D0548F46991C8018E0D9F1D0E942D0CEA
:1003C0000F5F1F4FF4CF80E0DF91CF911F910F910E
:1003D000FF90EF90DF90CF900895CF92DF92EF9251
:1003E000FF920F931F93CF93DF938B01EB01E42ECA
:1003F000F12C6C01C61AD70ACE01801B910B8E1509
:100400009F0538F4C6018C0F9D1F0E94250C89930F
:10041000F3CF80E0DF91CF911F910F91FF90EF908C
:10042000DF90CF900895EF92FF920F931F93CF9399
:10043000DF938C01FC01E180FAE0EF9E7001112452
:1004400048E0BC0180E090E00E94C901C8E0D0E033
:10045000B8016C0F7D1FCE15DF0530F44AE0CE01E8
:100460000E94C9012A96F4CF8C2FDF91CF911F9162
:100470000F91FF90EF900895EF92FF920F931F93CB
:10048000CF93DF937C0181E090E00E94250C282F20
:1004900030E02F5F3F4F8AE0829F8001839F100DE5
:1004A000112448E0B70180E090E00E94ED01C8E02F
:1004B000D0E001501109B7016C0F7D1FC017D107A3
:1004C00030F44AE0CE010E94ED012A96F4CF8C2F41
:1004D000DF91CF911F910F91FF90EF900895CF93EF
:1004E000DF9360E571E088E096E00E94260B0E94B1
:1004F000A600C8EED3E08BE091E00E94EB008823D9
:1005000049F01092D70580910B01853B18F0803F90
:1005100009F050C040910C0160910B0180E00E94F5
:100520004D0140910E0160910D0181E00E944D014D
:100530004091100160910F0182E00E944D014091B5
:1005400012016091110183E00E944D01409114015C
:100550006091130184E00E944D0140911601609169
:10056000150185E00E944D010E945B018093D80532
:10057000882349F01092D70564E170E080E090E0B4
:100580000E94D607B8CF8091D7058111B4CF809152
:1005900017018C9FB0018D9F700D1124882777FD66
:1005A0008095982F0E94D6070E948F0081E080934B
:1005B000D705A1CFDF91CF910895FF920F931F939D
:1005C000CF93DF9368E571E088E096E00E94260B08
:1005D0000E94A600C8EFD1E000E010E08AE0F82E0B
:1005E0008BE091E00E94EB008823D1F380910B0116
:1005F000853BB0F0823FA1F00093E80187EE91E0E7
:100600000E94130268EC70E080E090E00E94D60740
:1006100080910B01DF91CF911F910F91FF90089571
:10062000FE0139978083F09EA001F19E500D1124A8
:10063000DA01AB50BE4F90910C019F708C91807F7E
:10064000892B8C93CE01089720910D01FC0120830A
:1006500090910E019295907F8C918F70892B8C9345
:10066000DE01179780910F018C93DA01AA50BE4FDB
:10067000909110019F708C91807F892B8C93CE017B
:10068000069720911101FC0120839091120192950F
:10069000907F8C918F70892B8C93DE0115978091C0
:1006A00013018C93FA01E950FE4F909114019F7051
:1006B0008081807F892B80831196809115018C9396
:1006C000909116019295907F80818F70892B808305
:1006D0008091170188830E948F000F5F1F4F2A9619
:1006E0007FCF26E040E052EC61E070E088E096E0E9
:1006F0000E94B6090E94FF0085E58093E7010895F6
:100700009F92AF92BF92CF92DF92EF92FF920F93A0
:100710001F93CF93DF9366E571E088E096E00E9437
:10072000260B8091E701853539F06DE571E088E0B1
:1007300096E00E94260BB2C08091E601811107C0AD
:1007400087EE91E00E943C0281E08093E601C09038
:10075000E801D12CC8EFD1E000E010E09AE0992E3A
:100760000C151D050CF088C066E870E088E096E086
:100770000E94880061E670E088E096E00E948800B0
:1007800058018FEFA81AB80AB50188E096E00E94D8
:100790008800FE013997608188E096E00E94510947
:1007A000909E7001919EF00C112487010B501E4FFA
:1007B000F80160816F7088E096E00E945109FE01A7
:1007C0003897608188E096E00E945109F8016081C5
:1007D00062956F7088E096E00E945109FE0137979C
:1007E000608188E096E00E94510987010A501E4FFF
:1007F000F80160816F7088E096E00E945109FE0167
:100800003697608188E096E00E945109F801608186
:1008100062956F7088E096E00E945109FE0135975D
:10082000608188E096E00E945109870109501E4FBF
:10083000F80160816F7088E096E00E945109FE0126
:100840003497608188E096E00E945109F801608148
:1008500062956F7088E096E00E945109688188E097
:1008600096E00E9451096EEF70E088E096E00E94E9
:1008700088002A96850174CF6EEE70E088E096E0DD
:100880000E9488006BEB70E088E096E00E94880090
:1008900060ED77E080E090E00E94D60780EFDF9186
:1008A000CF911F910F91FF90EF90DF90CF90BF906D
:1008B000AF909F9008952F923F924F925F926F92C8
:1008C0007F928F929F92AF92BF92CF92DF92EF92E0
:1008D000FF920F931F93CF93DF93CDB7DEB72A9785
:1008E0000FB6F894DEBF0FBECDBF64E671E088E0BE
:1008F00096E00E94260B0E94A60087EE91E00E94DF
:100900003C0291E09093E601682F88E096E00E9417
:1009100051095090E801652D88E096E00E94510948
:10092000212C2AE0422E34E6332EE52CF12C25141E
:1009300008F0A5C0622C712C469CC001479C900D0C
:1009400011249C012B503E4F59019C0129513E4FCF
:100950003A872987490138E0830E911C29853A8519
:10096000275F3F4F3C832B83FC01EA50FE4F6F0112
:10097000FFEF6F1A7F0A469C8001479C100D1124DF
:1009800009511E4F29853A85255F3F4F3E832D83B0
:100990009C0129503E4F3A83298329853A85245F5B
:1009A0003F4F38872F8364E170E080E090E00E9441
:1009B000D607F50140814F70F401608180E00E940C
:1009C0004D01F501408142954F70EB81FC816081C2
:1009D00081E00E944D01F60140814F70F801608175
:1009E00082E00E944D01F601408142954F70ED81F9
:1009F000FE81608183E00E944D01E981FA8140819E
:100A00004F70EF81F885608184E00E944D01E9819B
:100A1000FA81408142954F70E985FA85658585E0C8
:100A20000E944D010E945B018111BDCF369CC00127
:100A3000379C900D1124B7010E949C0B862F0E94B9
:100A4000A900E985FA85818928EE33E0829FB0010B
:100A5000839F700D1124882777FD8095982F0E9421
:100A6000D6078BE091E00E94EB00882331F0809163
:100A70000B01853B10F0813F21F4239458CF212CAA
:100A800056CF2A960FB6F894DEBF0FBECDBFDF91CA
:100A9000CF911F910F91FF90EF90DF90CF90BF907B
:100AA000AF909F908F907F906F905F904F903F900E
:100AB0002F90089580910A01813F61F018F4803FE2
:100AC00031F00895823F49F0843F51F008950E942B
:100AD0006F0208C00E945B0405C00E94DD0202C0D4
:100AE0000E94800380930A0108951F920F920FB60F
:100AF0000F9211242F933F934F935F936F937F93A4
:100B00008F939F93AF93BF93EF93FF938091DA05F9
:100B100087FF05C010928500109284001AC02091B2
:100B2000DA05332727FD30958091D90590E0281705
:100B300039077CF48091DA05992787FD9095FC01AF
:100B4000EE0FFF1FE80FF91FE552FA4F808186FD77
:100B500015C08091DA058F5F8093DA052091DA0560
:100B6000332727FD30958091D90590E02817390764
:100B7000BCF48091DA058C305CF112C08091DA050A
:100B8000992787FD9095FC01EE0FFF1FE80FF91FD5
:100B9000E552FA4F808160E08F730E949B08D9CFA5
:100BA0008091840090918500049680349C4918F4CB
:100BB00080E49CE905C080918400909185000496B2
:100BC00090938900809388008FEF8093DA0538C076
:100BD00020918400309185008091DA05992787FD66
:100BE0009095FC01EE0FFF1FE80FF91FE552FA4F39
:100BF00081819281820F931F909389008093880056
:100C00008091DA05992787FD9095FC01EE0FFF1F73
:100C1000E80FF91FE552FA4F808186FF11C08091DD
:100C2000DA05992787FD9095FC01EE0FFF1FE80F6D
:100C3000F91FE552FA4F808161E08F730E949B0893
:100C4000FF91EF91BF91AF919F918F917F916F91A4
:100C50005F914F913F912F910F900FBE0F901F907A
:100C600018952091D9052C30A0F431E0320F309343
:100C7000D905FC012083822F90E0FC01EE0FFF1FBD
:100C8000E80FF91FE552FA4F88EB9BE092838183CE
:100C900008952FEFFC0120830895DF92EF92FF92D9
:100CA0000F931F93CF93DF93EC01D62E7A01890126
:100CB00088818C3008F066C061E08D2D0E9462084A
:100CC0008881A82FB0E0FD01EE0FFF1FEA0FFB1F88
:100CD000E552FA4F2D2D2F739081907C922B9083AB
:100CE00060E272E06E197F0977FF02C06D5F7F4F8F
:100CF0007595679575956795698340E659E0401B42
:100D0000510B57FF02C04D5F5F4F55954795559565
:100D100047954A836CE00E94900B9CE0899FB0014C
:100D2000112420E030E0A901460F571FFA01EE0F11
:100D3000FF1FE40FF51FE552FA4F908196FD16C094
:100D40002F5F3F4F2C30310571F781110FC010928A
:100D5000800082E0809381001092850010928400D0
:100D6000B19A80916F00826080936F00888190E0DB
:100D7000FC01EE0FFF1FE80FF91FE552FA4F8081CB
:100D8000806480838881DF91CF911F910F91FF90C4
:100D9000EF90DF90089520E639E040E252E00C94B5
:100DA0004D06FC0180818C3070F5918128E830E09F
:100DB000291B310997FD3395220F331F220F331F53
:100DC000621773077CF0928128E532E0291B310914
:100DD00097FD3395220F331F220F331F62177307BE
:100DE0000CF49B0122503109220F331F4FB7F894A6
:100DF00090E0FC01EE0FFF1FE80FF91FE552FA4FDC
:100E0000328321834FBF08954F925F926F927F92FA
:100E1000AF92BF92CF92DF92EF92FF920F931F9308
:100E2000CF93DF93EC01603282E078070CF040C092
:100E300077FD06C0653B71052CF064EB70E002C0E5
:100E400060E070E0898128E830E0281B310987FDE7
:100E50003395220F331F220F331F5901CC24B7FCC7
:100E6000C094DC2C882777FD8095982F2A8148E54F
:100E700052E0421B510927FD5395440F551F440F63
:100E8000551F2A01662457FC6094762C7F926F923E
:100E90005F924F9214EBE12EF12C00E010E020E085
:100EA00030E0A9010E94380B0F900F900F900F9027
:100EB000CE01DF91CF911F910F91FF90EF90DF90C6
:100EC000CF90BF90AF907F906F905F904F900C94B9
:100ED000D1061F920F920FB60F9211242F933F93BA
:100EE0008F939F93AF93BF938091000690910106DB
:100EF000A0910206B09103063091FF0523E0230F75
:100F00002D3720F40196A11DB11D05C026E8230F41
:100F10000296A11DB11D2093FF05809300069093BA
:100F20000106A0930206B0930306809104069091F7
:100F30000506A0910606B09107060196A11DB11DF8
:100F40008093040690930506A0930606B0930706C7
:100F5000BF91AF919F918F913F912F910F900FBEB5
:100F60000F901F9018953FB7F894809104069091C8
:100F70000506A0910606B091070626B5A89B05C0F8
:100F80002F3F19F00196A11DB11D3FBF6627782F95
:100F9000892F9A2F620F711D811D911D42E0660FEE
:100FA000771F881F991F4A95D1F70895CF92DF9236
:100FB000EF92FF92CF93DF936B017C010E94B30706
:100FC000EB01C114D104E104F10489F00E947F0B0C
:100FD0000E94B3076C1B7D0B683E734090F381E069
:100FE000C81AD108E108F108C851DC4FEACFDF91F7
:100FF000CF91FF90EF90DF90CF900895789484B5D3
:10100000826084BD84B5816084BD85B5826085BD04
:1010100085B5816085BDEEE6F0E0808181608083EA
:10102000E1E8F0E0108280818260808380818160CD
:101030008083E0E8F0E0808181608083E1EBF0E094
:10104000808184608083E0EBF0E080818160808338
:10105000EAE7F0E080818460808380818260808321
:101060008081816080838081806880831092C1004C
:101070000895833081F028F4813099F08230A1F016
:1010800008958730A9F08830B9F08430D1F4809188
:1010900080008F7D03C0809180008F7780938000D7
:1010A000089584B58F7702C084B58F7D84BD08957F
:1010B0008091B0008F7703C08091B0008F7D8093C6
:1010C000B0000895CF93DF9390E0FC01E458FF4F08
:1010D0002491FC01E057FF4F8491882349F190E06F
:1010E000880F991FFC01E255FF4FA591B4918C55D3
:1010F0009F4FFC01C591D4919FB7611108C0F8942E
:101100008C91209582238C93888182230AC062303F
:1011100051F4F8948C91322F309583238C938881ED
:10112000822B888304C0F8948C91822B8C939FBF70
:10113000DF91CF9108950F931F93CF93DF931F9269
:10114000CDB7DEB7282F30E0F901E859FF4F849181
:10115000F901E458FF4F1491F901E057FF4F049152
:101160000023C9F0882321F069830E94390869812E
:10117000E02FF0E0EE0FFF1FEC55FF4FA591B4916B
:101180009FB7F8948C91611103C01095812301C021
:10119000812B8C939FBF0F90DF91CF911F910F9167
:1011A0000895FC01818D228D90E0805C9F4F821B11
:1011B000910960E470E00E949C0B0895FC01918D00
:1011C000828D981731F0828DE80FF11D858D90E0AA
:1011D00008958FEF9FEF0895FC01918D828D9817F0
:1011E00061F0828DDF01A80FB11D5D968C91928D0B
:1011F0009F5F9F73928F90E008958FEF9FEF089508
:1012000080E79AE0892B49F080E090E0892B29F073
:101210000E94700A81110C9400000895FC01848DD5
:10122000DF01A80FB11DA35ABF4F2C91848D90E010
:1012300001968F739927848FA689B7892C93A089EB
:10124000B1898C9180648C93938D848D981306C0A2
:101250000288F389E02D80818F7D80830895CF936C
:10126000DF93EC01888D8823C9F0EA89FB898081AE
:1012700085FD05C0A889B9898C9186FD0FC00FB680
:1012800007FCF5CF808185FFF2CFA889B9898C91C1
:1012900085FFEDCFCE010E940E09E7CFDF91CF9100
:1012A0000895CF92DF92FF920F931F93CF93DF9316
:1012B0001F92CDB7DEB76C01DC015B969C915B970A
:1012C0005C968C915C97981307C05096ED91FC91B9
:1012D0005197808185FD32C0F601038D10E00F5FCC
:1012E0001F4F0F731127F02EF601848DF81211C0D5
:1012F0000FB607FCF9CFD6015096ED91FC915197AE
:10130000808185FFF1CFC60169830E940E09698142
:10131000EBCF838DE80FF11DE35AFF4F6083D601B9
:101320005B960C935B975296ED91FC91539780815D
:101330008062808381E058968C930DC0D6015696CA
:10134000ED91FC91579760835096ED91FC915197E8
:1013500080818064808381E090E00F90DF91CF9165
:101360001F910F91FF90DF90CF900895BF92CF9281
:10137000DF92EF92FF92CF93DF93EC016A017B0142
:10138000B22EE889F98982E08083411581EE580701
:1013900061057105A1F060E079E08DE390E0A701BF
:1013A00096010E94B00B215031094109510956950F
:1013B000479537952795211580E1380798F0E889FA
:1013C000F989108260E874E88EE190E0A701960147
:1013D0000E94B00B2150310941095109569547959A
:1013E00037952795EC85FD853083EE85FF85208335
:1013F000188EEC89FD89B082EA89FB898081806141
:101400008083EA89FB89808188608083EA89FB89FF
:10141000808180688083EA89FB8980818F7D8083D9
:10142000DF91CF91FF90EF90DF90CF90BF90089524
:101430001F920F920FB60F9211242F938F939F93A9
:10144000EF93FF93E0911806F09119068081E091E7
:101450001E06F0911F0682FD12C090818091210628
:101460008F5F8F7320912206821751F0E091210641
:10147000F0E0E85FF94F958F8093210601C08081ED
:10148000FF91EF919F918F912F910F900FBE0F9031
:101490001F9018951F920F920FB60F9211242F9341
:1014A0003F934F935F936F937F938F939F93AF93EC
:1014B000BF93EF93FF9388E096E00E940E09FF919F
:1014C000EF91BF91AF919F918F917F916F915F91BC
:1014D0004F913F912F910F900FBE0F901F90189535
:1014E00088E096E00E94D10821E0892B09F420E0F1
:1014F000822F089510920B0610920A0688EE93E050
:10150000A0E0B0E080930C0690930D06A0930E0629
:10151000B0930F068DE691E090930906809308063C
:1015200085EC90E0909315068093140684EC90E08F
:10153000909317068093160680EC90E0909319061E
:101540008093180681EC90E090931B0680931A0616
:1015500082EC90E090931D0680931C0686EC90E050
:1015600090931F0680931E06109221061092220669
:101570001092230610922406089508950E94FE07F3
:101580000E94BD0A0E947103C0E0D9E00E945A0582
:101590002097E1F30E940009F9CFCF92DF92EF92FA
:1015A000FF920F931F93CF93DF936C017A01EB01AE
:1015B000E60EF71E00E010E0CE15DF0561F0699140
:1015C000D601ED91FC910190F081E02DC6010995C5
:1015D000080F191FF1CFC801DF91CF911F910F9113
:1015E000FF90EF90DF90CF9008956115710581F025
:1015F000DB010D900020E9F7AD0141505109461B78
:10160000570BDC01ED91FC910280F381E02D0994F0
:1016100080E090E00895DC01ED91FC910190F08173
:10162000E02D09940F931F93CF93DF93EC016DE0AE
:101630000E940B0B8C016AE0CE010E940B0B800F05
:10164000911FDF91CF911F910F9108950F931F93D9
:10165000CF93DF93EC010E94F50A8C01CE010E942A
:10166000120B800F911FDF91CF911F910F91089561
:101670004F925F926F927F92AF92BF92CF92DF9222
:10168000EF92FF920F931F93CF93DF93CDB7DEB707
:1016900029013A01621B730B840B950B29893A8946
:1016A0004B895C892A193B094C095D09298B3A8BC6
:1016B0004B8B5C8B9B01AC0169897A898B899C89F6
:1016C0000E94800BE418F50806091709A801970184
:1016D0000E94D20B2A0D3B1D4C1D5D1DCA01B90194
:1016E000DF91CF911F910F91FF90EF90DF90CF90FE
:1016F000BF90AF907F906F905F904F900895089546
:10170000DB018F939F930E94F10BBF91AF91A29F3A
:10171000800D911DA39F900DB29F900D11240895EF
:10172000991B79E004C0991F961708F0961B881F33
:101730007A95C9F78095089597FB072E16F40094C3
:1017400007D077FD09D00E94FC0B07FC05D03EF4C2
:10175000909581959F4F0895709561957F4F08955D
:10176000A1E21A2EAA1BBB1BFD010DC0AA1FBB1FA5
:10177000EE1FFF1FA217B307E407F50720F0A21B17
:10178000B30BE40BF50B661F771F881F991F1A9484
:1017900069F760957095809590959B01AC01BD01AE
:1017A000CF010895052E97FB1EF400940E94E90BCB
:1017B00057FD07D00E94B00B07FC03D04EF40C94E9
:1017C000E90B50954095309521953F4F4F4F5F4F16
:1017D000089590958095709561957F4F8F4F9F4F9D
:1017E00008950E94160CA59F900DB49F900DA49F84
:1017F000800D911D11240895AA1BBB1B51E107C048
:10180000AA1FBB1FA617B70710F0A61BB70B881F90
:10181000991F5A95A9F780959095BC01CD0108951F
:10182000EE0FFF1F0590F491E02D0994A29FB001E7
:10183000B39FC001A39F700D811D1124911DB29F04
:10184000700D811D1124911D0895F999FECF92BD4F
:1018500081BDF89A992780B50895262FF999FECF72
:101860001FBA92BD81BD20BD0FB6F894FA9AF99ABD
:0A1870000FBE01960895F894FFCF13
:10187A000000A506800001000000F05A015A015A32
:10188A00015A015A01010000000000000000000096
:10189A00000000000000000000000000000000003E
:1018AA00000000000000000000000000000000002E
:1018BA000000000000000000000000446F6E650098
:1018CA0044656275670055704C6F6164004E6F44E1
:1018DA00617461004175746F00000000005109CD08
:0A18EA000AD108EC08DE082F0900FF
:00000001FF
